:020000040000FA
:040000008FEF09F085
:08000800056ED8CF06F0E0CF31
:1000100007F00001E9CF0DF0EACF08F0E1CF09F0D9
:10002000E2CF0AF0D9CF0BF0DACF0CF0F3CF14F017
:10003000F4CF15F0FACF16F000C00FF001C010F0A9
:1000400002C011F003C012F004C013F0A0AA2CEFFC
:1000500000F0A1BA09EF08F00FC000F010C001F0E5
:1000600011C002F012C003F013C004F00DC0E9FF8C
:1000700008C0EAFF088E09C0E1FF0AC0E2FF0BC01A
:10008000D9FF0CC0DAFF14C0F3FF15C0F4FF16C08F
:10009000FAFF055007C0E0FF06C0D8FF1000F76A5E
:1000A000AE0FF66E000EF7220900F55012000003A5
:1000B00002FFFFFFFFFFFFFFFFFFFFFFFFFFF76AEA
:1000C000CE0FF66E000EF7220900F550120000FF69
:1000D00002FFFFFFFFFFFFFFFFFFFFFFFFFFF76ACA
:1000E000EE0FF66E000EF7220900F55012004000E8
:1000F00008004000000000000000000000000000B8
:100100000000000000000000000000000000F76A8E
:100110001E0FF66E010EF7220900F5501200400086
:10012000000040000000000000000000000000008F
:100130000000000000000000000000000000F76A5E
:100140004E0FF66E010EF7220900F550120009025B
:100150004300020100803209040000010202010094
:1001600005240010010424020205240600010524D0
:10017000010001070581030800FA09040100020AD1
:10018000000000070502024100010705820241004C
:100190000100F76AA20FF66E010EF7220900F55072
:1001A00012000200F76AB40FF66E010EF722090082
:1001B000F550120012171B20FFFFFFFFF76ACC0F4C
:1001C000F66E010EF7220900F5501200120110011F
:1001D0000200004061043300000101020001F76ADF
:1001E000EE0FF66E010EF7220900F550120004031F
:1001F000090408034300430053001803530045005B
:100200005200490041004C002000440045004D00D0
:100210004F006D92699468A402D06894FCD714EFE3
:1002200008F0400E0401016F040E036F180E026FF8
:10023000880E006F046B040E076F580E066F0001E6
:10024000000C70A002D0EDDF7090689A1DEF08F0EE
:100250006A6A689223EF08F0C951CB03F3CF01F02B
:10026000F4CF00F0CC03F3500026CA51CB03F35077
:100270000020026E000C036AC351700FE96E0F0E6E
:100280000320EA6EEF6ACA6BC3C0C9F0CC6B080EDC
:10029000CB6FE2DF01C0E9FF040E0224EA6EEF6AD1
:1002A000CA6BC3C0C9F0CC6B080ECB6FD5DF02C0E0
:1002B000C5F001C0C4F0040EC427000EC523C4C09D
:1002C000E9FF040EC525EA6EEF6A000C010EC26F4D
:1002D000C2510F0805E3C2C0C3F0CDDFC22BF8D76F
:1002E000000C306A2F6A250E2E6E800E2D6E316A3C
:1002F000326A080E336E836B8291356A346A7E6B84
:100300007F91000CB86BB85101080AE3036AB85139
:100310002B0FE96E000E0320EA6EEF6AB82BF3D7BD
:10032000E0DF206A010E216E1F6A000C689600D083
:1003300000D000D0000C6A6A686A9F0E6B6E3D0E9A
:10034000696E6E6AC3DFDEDF160E706E68A602D0BD
:10035000EDDFFCD76D9865DF030E266E29EF08F000
:10036000698468986D822FEF08F0689C35EF08F07B
:10037000BDC027F0000CFF0E276E000CBB6B2A528D
:1003800037E0BB513F0834E3225005E0020A0DE09C
:10039000010A15E01ED0036A2950F2CFBDF0F29E8B
:1003A000CEDEBDBFF28EBC6F14D0036A2950F2CFEF
:1003B000BDF0F29E14DFBDBFF28EBC6F0AD0036A9F
:1003C0002950F2CFBDF0F29EF9DEBDBFF28EBC6FB8
:1003D00000D0292A2A06BB51BB2B580F036AD8B07C
:1003E000032AE96E040E0324EA6EBCC0EFFFC7D7F0
:1003F0002A5204E1BB51400801E01F6ABBC0BDF0B6
:10040000B7DF000C296A226A04011B51010A0001AE
:1004100007E0030A0AE0010A0BE0220A20E03AD0D2
:10042000120E2A6E030E226E37D0430E2A6E34D07F
:10043000020E226E036A04011A51230FE96E000EA8
:100440000320EA6EEFCF29F0036A2950F2CFBAF009
:10045000F29E0001C4DEBABFF28E2A6E1DD0036A7E
:1004600004011A51F2CFBAF0F29E00019BDEBABF2E
:10047000F28E296E293C01D00BD0036A2950F2CFAD
:10048000BAF0F29E5CDEBABFF28E2A6E05D002D0C0
:1004900072DF0ED070DF0CD004011F5305E12A502B
:1004A0001E5D02E21EC42AF0010E1F6E000166DF0F
:1004B00098EF03F0BA5304E1040E266E07DFE7D08D
:1004C000050E266E040EBD6F980EBC6F010EBB6F3D
:1004D000BB510F08D8A0DBD0BBC0C3F0CCDEBE6BD5
:1004E000036ABB51F2CFC2F0F29EE9DDC2BFF28EC9
:1004F000FF0863E0040EBE6FD890BB35036AF2CFED
:10050000C2F0F29E04DE0900F5CF03F0C2BFF28E06
:10051000BF6F03C0C0F0CA6BBBC0C9F0CC6B080E84
:10052000CB6F9ADE01C0C2F0010E0124016E000EF5
:100530000220036E01C0E9FF040E0324EA6EBFC06F
:10054000EFFFCA6BBBC0C9F0CC6B080ECB6F84DE6B
:1005500001C0C2F0020E0124016E000E0220036EE3
:1005600001C0E9FF040E0324EA6EBDC0ECFFED52AA
:10057000BCC0EFFFD890BB35036AF2CFC2F0F29E49
:10058000C6DD0900F5CF03F0C2BFF28EBC270350D1
:10059000BD23880EC16FC0B1C181C0B3C183CA6B16
:1005A000BBC0C9F0CC6B080ECB6F56DE01C0E9FFB3
:1005B000040E0224EA6EC1C0EFFF036ABB51F2CF02
:1005C000C2F0F29E6CDDC2BFF28EFF0845E0BE8332
:1005D000CA6BBBC0C9F0CC6B080ECB6F3DDE02C04E
:1005E000C3F001C0C2F0040EC227000EC323020EE6
:1005F000C225016E000EC321036E01C0E9FF040E87
:100600000324EA6EBDC0ECFFED52BCC0EFFFD890F2
:10061000BB35036AF2CFC2F0F29E61DD0900F5CF6F
:1006200003F0C2BFF28EBC270350BD23CA6BBBC010
:10063000C9F0CC6B080ECB6F0FDE02C0C3F001C057
:10064000C2F0040EC227000EC323C2C0E9FF040E8D
:10065000C325EA6E400EEF6EBE51060802E10E0E93
:10066000BE6F036ABB51F2CFC2F0F29E18DDC2BF6B
:10067000F28E0108D8A4BE89036ABB51700FE96EDF
:100680000F0E0320EA6EBEC0EFFFBB2B21D792EF07
:1006900003F00401195100010DE0010A14E0020AFF
:1006A0001EE0060A27E0030A2CE00E0A2BE0010AEE
:1006B0002FE03CD021C058F40401596B020E000118
:1006C000BD6F56DE35D004011A2D06D0010E21165D
:1006D0000001BD6B4DDE02D000014DDE29D00401CA
:1006E0001A2D05D021820001BD6B42DE02D000012F
:1006F00042DE1ED0020E1F6E1AC428F0BD6B38DE1B
:1007000017D080D620C058F4010EBD6F31DE10D056
:1007100004011A51010808E31AC420F01AC4BAF0FF
:100720000001C8D6BD6B24DE000102D024DE00D05B
:1007300031EF05F020C0BAF004011951000105E0C5
:100740000A0A0BE0010A2BE03CD00401586B596BFC
:10075000020E0001BD6F0CDE36D0BA531EE0010E52
:10076000BA5D036AF2CFBBF0F29E13DDBBBFF28E1F
:10077000016E04011C5DD8A002D000010ED0036AF6
:100780001C512B0FE96E000E0320EA6EEFCF58F4D8
:10079000010E0001BD6FECDD01D0EDDD14D0BA53C8
:1007A0000EE0036A04011C512B0FE96E000E0320BA
:1007B000EA6E1AC4EFFF0001BD6BDADD01D0DBDDAC
:1007C00002D0D9DD00D031EF05F0BB91BABFBB81BB
:1007D000BA9FBBA110D0036ABA51F2CFBCF0F29E0F
:1007E0005EDCBCBFF28EFF0802E1000E01D0010EFC
:1007F000016E10D00FD0036ABA51F2CFBCF0F29E56
:100800005EDCBCBFF28EFF0802E1000E01D0010EDB
:10081000016E00D09DEF04F0BB91BABFBB81BA9FBF
:10082000BBA117D0CA6BBAC0C9F0CC6B080ECB6F96
:1008300013DD02C0BDF001C0BCF0040EBC27000EE9
:10084000BD23BCC0E9FF040EBD25EA6E880EEF6E25
:100850000DD0CA6BBAC0C9F0CC6B080ECB6FFCDCF4
:1008600001C0E9FF040E0224EA6EEF6AACEF04F067
:10087000BB91BABFBB81BA9FBBA117D0CA6BBAC02C
:10088000C9F0CC6B080ECB6FE7DC02C0BDF001C035
:10089000BCF0040EBC27000EBD23BCC0E9FF040E53
:1008A000BD25EA6E840EEF6E0ED0CA6BBAC0C9F0D9
:1008B000CC6B080ECB6FD0DC01C0E9FF040E022424
:1008C000EA6E840EEF6EB2EF04F0BB91BABFBB814B
:1008D000BA9FBBA117D0CA6BBAC0C9F0CC6B080EC7
:1008E000CB6FBADC02C0BEF001C0BDF0040EBD2764
:1008F000000EBE23BDC0E9FF040EBE25EA6EEFCF99
:10090000BCF00ED0CA6BBAC0C9F0CC6B080ECB6F6E
:10091000A3DC01C0E9FF040E0224EA6EEFCFBCF0B5
:10092000BCAF02D0BCB502D0000E01D0010E016EEA
:10093000BCEF04F01CC4BAF048D7015229E004010E
:100940001951010A000105E0020A09E0030A0DE05D
:100950001DD01CC4BAF060D7BD6B0ADD19D01CC411
:10096000BAF086D7BD6B04DD13D00401586B596B08
:100970001CC4BAF00001A9D7015204E0010E040121
:10098000586F0001020EBD6FF3DC02D0F4DC00D022
:1009900031EF05F0FE0E276E000C04011C2D01D076
:1009A00002D01C5348E1195100010BE0010A0DE08F
:1009B000210A1CE0010A1FE0030A2EE0010A31E0CF
:1009C00037D0010E856FE6DF35D0040EEA6E580E83
:1009D000E96EE26A360EE16E080E016EE6CFEEFFBA
:1009E000012EFCD71EC4BDF0C3DC24D0020E856FDF
:1009F0008281D0DF1FD0040EEA6E580EE96EE26AE3
:100A00002D0EE16E070E016EE6CFEEFF012EFCD734
:100A1000070EBD6FADDC0ED01AC483F0BD6BA8DC31
:100A200009D01AC435F01BC434F0BD6BA1DC02D070
:100A3000A2DC00D00401000131EF05F01F6A0401BF
:100A400018517F0B000107E0010A06E0030A05E0E8
:100A5000230A04E004D01DD66DD66CD79ED78BDC5C
:100A600000D057EF07F0CA6BBAC0C9F0CC6B080EC4
:100A7000CB6F2CEC01F001C0E9FF040E0224EA6EFA
:100A8000EFCFBCF0BB51020806E1BCAD02D0BB6B9E
:100A900002D0010EBB6FBB5103081AE1840EBC6F7C
:100AA000CA6BBAC0C9F0CC6B080ECB6F2CEC01F04E
:100AB00002C0C0F001C0BFF0040EBF27000EC0236B
:100AC000BFC0E9FF040EC025EA6E840EEF6E07D0AA
:100AD000BB2D03D0C80EBC6F02D0880EBC6FD8905F
:100AE000BA35036AF2CFBFF0F29E87EC00F009003E
:100AF000F5CF03F0BFBFF28EBD6F03C0BEF0CA6B6F
:100B0000BAC0C9F0CC6B080ECB6F2CEC01F001C061
:100B1000BFF0010E0124016E000E0220036E01C021
:100B2000E9FF040E0324EA6EBDC0EFFFBEB1BC8135
:100B3000BEB3BC83CA6BBAC0C9F0CC6B080ECB6F16
:100B40002CEC01F001C0E9FF040E0224EA6EBCC0E7
:100B5000EFFF000C036AC851700FE96E0F0E0320FF
:100B6000EA6EEF5219E0CA6BC8C0C9F0CC6B080E30
:100B7000CB6F2CEC01F002C0CAF001C0C9F0040E2A
:100B8000C927000ECA23C9C0E9FF040ECA25EA6EB0
:100B9000EFCFC9F0C9AF02D0000E01D0010E016E37
:100BA000000CC3C0C8F0D6DF0152D8B47CD0CA6BE9
:100BB000C3C0C9F0CC6B080ECB6F2CEC01F002C0A7
:100BC000C9F001C0C8F0040EC827000EC923010EE9
:100BD000C825016E000EC921036E01C0E9FF040E95
:100BE0000324EA6EC4C0EFFFC65102081EE1CA6BBF
:100BF000C3C0C9F0CC6B080ECB6F2CEC01F002C067
:100C0000C9F001C0C8F0040EC827000EC923C8C02F
:100C1000E9FF040EC925EA6EEFCFC7F0C7AD02D0D9
:100C2000C66B02D0010EC66F18D0C651040815E17C
:100C3000CA6BC3C0C9F0CC6B080ECB6F2CEC01F0B3
:100C400001C0E9FF040E0224EA6EEFCFC7F0C7AD82
:100C500003D0010EC66F01D0C66BC62D03D0C80EDF
:100C6000C76F02D0880EC76FC5B1C781C5B3C78330
:100C7000CA6BC3C0C9F0CC6B080ECB6F2CEC01F073
:100C800002C0C9F001C0C8F0040EC827000EC92375
:100C9000C8C0E9FF040EC925EA6EC7C0EFFF010E08
:100CA000016E03D000D0000E016E000C8551010AC8
:100CB00003E0030A13E024D0EA6A360EE96E040E5C
:100CC000E26E180EE16E080E016EE6CFEEFF012E09
:100CD000FCD7BD6BB8EC01F0856B16D0EA6A2D0E1F
:100CE000E96E040EE26E180EE16E070E016EE6CF9D
:100CF000EEFF012EFCD7856BBD6BB8EC01F004D084
:100D0000856B11EC01F000D0B0EF06F0CA6BBBC0F0
:100D1000C9F0CC6B080ECB6F2CEC01F002C0BDF01B
:100D200001C0BCF0010E0124016E000E0220036E12
:100D300001C0E9FF040E0324EA6E036AEFCF01F05D
:100D400003C002F0A9EF06F07F81816B020EBB6F3A
:100D5000DDD701C080F0B5EF06F0BA5302E1A6D7A7
:100D600004D0BA51020801E1EFD7000CBBC06EFFFE
:100D7000BB5303E0040E266E02D0020E266EC6EFB1
:100D800006F0206A1F6A28C0BBF0F0D737EF07F0E3
:100D9000BBC0C8F0DFDE015246E0CA6BBBC0C9F081
:100DA000CC6B080ECB6F2CEC01F002C0C4F001C07C
:100DB000C3F0040EC327000EC423020EC325016E28
:100DC000000EC421036E01C0E9FF040E0324EA6E85
:100DD000ECCF03F0ED52EFCFC1F003C0C2F0C2C0C0
:100DE000EAFFC1C0E9FFBDC0E2FFBCC0E1FFBFC078
:100DF00002F0BEC001F0015202E0022A02D002520B
:100E000006E0E6CFEEFF012EFCD7022EFAD7BBC0DC
:100E1000C3F0BFC0C5F0BEC0C4F0C0C0C6F0C1DEE4
:100E2000015003D000D0000E016E22EF07F0020E39
:100E3000BB6FBD6B3E0EBC6FBF6B7EC0BEF0020EC3
:100E4000C06FA6D77EC084F07E6B2AEF07F07E537A
:100E500001E0EDD73CEF07F0BA530AE11F2C03D0B5
:100E6000BEEC01F004D01F50020801E18AD704D083
:100E7000BA51020801E1EBD7000C6C30B86FB833FF
:100E8000B8331F0EB8176C5240E1040100513C0BFF
:100E90000001B96F430E04010017000196EC01F048
:100EA000B95134081BE10401046B0001C7D56D98EA
:100EB000273C05D0BA6B030EBB6FD5DD0ED0BA6BE5
:100EC000020EBB6FD0DD2750FE0807E0C36BC56B79
:100ED00027C0C4F0040EC66F64DE16D0B9510408F2
:100EE00013E1BA6B3ADFBA6B020EBB6FBCDD275061
:100EF000FE080AE0273C01D007D0C36BC56B27C0B2
:100F0000C4F0010EC66F4DDE82D06C50040818E1AB
:100F1000430E04010417000196EC01F0FF0E276E4A
:100F2000BA6B9ADF273C01D008D0C36BC56B27C0D2
:100F3000C4F0020EC66F35DE02D011EC01F067D0AE
:100F40006CB42CD0CA6BB8C0C9F0CC6B080ECB6F98
:100F50002CEC01F001C0BAF001C001F0040E022433
:100F6000036E01C0BAF0BB6FCA6BB8C0C9F0CC6BDE
:100F7000080ECB6F2CEC01F001C0E9FF040E022437
:100F8000EA6EEF50430BBBC0EAFFBAC0E9FFEF6E59
:100F900096EC01F0B8C0BAF0E0DE39D0CA6BB8C048
:100FA000C9F0CC6B080ECB6F2CEC01F002C0BBF08B
:100FB00001C0BAF0040EBA27000EBB23BAC001F07C
:100FC000040EBB25036EBAC0BAF0BB6FCA6BB8C0C3
:100FD000C9F0CC6B080ECB6F2CEC01F002C0BDF059
:100FE00001C0BCF0040EBC27000EBD23BCC0E9FF4D
:100FF000040EBD25EA6EEF50430BBBC0EAFFBAC03A
:10100000E9FFEF6E96EC01F0B8C0BAF025DF3BEFD8
:1010100008F0265201E135D0685233E068A404D0CC
:1010200069A402D009EF01F06DA201D02AD068AA0C
:1010300004D069AA02D021EF01F068A204D069A20D
:1010400002D028EF01F068A004D069A002D09BEF85
:1010500001F068A804D069A802D0B0EF01F068AC34
:1010600004D069AC02D0B5EF01F0B76B68A604D02C
:1010700069A602D002D701D004D0B751B72B03081C
:10108000F5E2A19A2CEF00F0EA6A900EE96EEF50BB
:101090000EE00F0E016E006A002EFED7012EFBD768
:1010A0008F0E006E002EFED70000EF2EF2D7000C40
:1010B0006D6A696A080E6F6E94503009946E266AE4
:1010C000186AF2BE188EF29E82EC01F018BEF28E03
:1010D0006BEF08F0EDD791EF08F0186AF2BE188EAA
:1010E000F29E82EC01F018BEF28E6D6A140E6F6EE5
:1010F000696A6D86010E266E81EF08F06DB601D02B
:10110000ECD7262C0BD06DBA09D0686A696AA08A20
:10111000C00EF212110E696E020E266E92EF08F0EA
:10112000D9D7ECD726500208FCE1C0EF09F0C69EE3
:101130009E9691C0C9FF020EC6BE05D09EA6FED7E0
:10114000000EC5BC010E016E000CC69CC586C5B65E
:10115000FED700B0C59A00A0C58AC588C5B8FED71D
:10116000C9CF01F0000C8E6B8F6BC580C5B0FED768
:101170008DC091F0DCDF916BDADFC582C5B2FED79E
:10118000010E8D25906F916FD2DF010E006EDDDFB5
:1011900001C08EF0006AD9DF01C08FF0C584C5B4EC
:1011A000FED78EC001F052EF09F08D35006E00368B
:1011B000FC0E0016C250C30B0010C26E010E906FE1
:1011C00063DFC282C2B2FED7C4CF01F0000C9EA87A
:1011D000FED7AD6E000CB3C0B5F0B2C0B4F0B5C070
:1011E00003F0B4C0E9FFB5C0EAFFEF5204E0B42B4E
:1011F000D8B4B52BF4D7B251B45D006EB351B55924
:10120000036E00C001F00BEF09F0B16BB0C0B3F09A
:10121000AFC0B2F0E0D70150B15D0DE2036AB15149
:10122000AF25E96EB0510320EA6EEFCFB2F0B251B4
:10123000CEDFB12BEBD74DEF09F00D0E8D6F0A0EFF
:101240008E6F8F6B946B956B966B976B986B996B9E
:101250009A6B9B6B9C6B9D6B9E6B9F6BA06BA16B4A
:10126000A26BA36BA46BA56BA66BA76BA86BA96BFA
:10127000AA6BAB6BAC6BAD6BAE6B8651A8DF2C0E63
:10128000A6DF8751A4DF2C0EA2DF8851A0DF3B0E22
:101290009EDFB06B8D0EAF6FB8D75FEF09F0900E89
:1012A0008D6F61D701C086F0020E8D6F7EDF01C0A9
:1012B00087F0010E8D6F79DF01C088F0BED7D5EFC2
:1012C00009F08D6B8E6B95928C82960E906FDCDEA2
:1012D00095928C928D5195080BE395908C80010E20
:1012E000906FD2DE95908C90190E906FCDDEF2D774
:1012F0000A0E8F6FF00E906FC7DE8F2FFBD78E51C7
:1013000095080BE395908C80020E906FBDDE959052
:101310008C90190E906FB8DEF2D7DAEF09F0F86A08
:10132000D09E088EEA6AE96A93829380770EC86E2F
:10133000280EC66EC78EC79CB886E10EAF6E040E2F
:10134000B06EA60EAC6E900EAB6EC150C00B0F0906
:10135000C16E070EB46E196A1A6A236A040E246EEF
:101360000C0E256E266A2A6A7E6B856B040E8D6FC5
:10137000FA0E906F89DE8D2FFBD771EC01F0D0D67D
:10138000C150C00B0609C16EC080C082C084C09E1F
:10139000C2809EAA05D09EAAFED7AECF8AF001D009
:1013A0008A6B8A51430802E17AD704D08A514408F3
:0813B00001E187D7EED703002D
:020000040030CA
:0E000000240E3E1E008381000FC00FE00F4053
:00000001FF
;PIC18F4550
;CRC=A8F1  CREATED="30-Apr-11 15:50"
